S00B00005450322E7372656343
S11300000C9462000C947F000C947F000C947F008D
S11300100C947F000C947F000C947F000C947F0060
S11300200C947F000C947F000C947F000C94CC0300
S11300300C947F000C947F000C947F000C947F0040
S11300400C947F000C947F000C947F000C947F0030
S11300500C947F000C947F000C947F000C947F0020
S11300600C947F000C947F0015044A048C04CF0484
S113007014055A05A1052D0646067D06BF06F90698
S113008025075707001F000000001F00001F101065
S113009010101F00001F181818181F00001F1C1C28
S11300A01C1C1F00001F1E1E1E1E1F00001F1F1FE2
S11300B01F1F1F0003070F1F0F070300181C1E1F1D
S11300C01E1C180011241FBECFEFD8E0DEBFCDBF29
S11300D011E0A0E0B1E0E2E2F1E102C005900D928E
S11300E0AC31B107D9F721E0ACE1B1E001C01D9218
S11300F0A533B207E1F70E94B3030C948F080C9464
S1130100000020E030E014C044B1F901E95EFE4F84
S113011081E090E0008002C0880F991F0A94E2F702
S1130120942F982B94B995B1892B85B92F5F3F4FA4
S1130130233031054CF38AB180688AB98BB1806869
S11301408BB920E030E015C04AB1F901ED5EFE4FF5
S113015081E090E0008002C0880F991F0A94E2F7C2
S1130160982F909594239AB99BB1892B8BB92F5FC3
S11301703F4F2430310544F30895CF93DC01C0E0B0
S11301804FC085B16C2F70E0FB01E95EFE4F21E0AA
S113019030E0008002C0220F331F0A94E2F720955A
S11301A0282325B990E02BC029B1492F50E0FA014A
S11301B0ED5EFE4F30E0008002C0359527950A942D
S11301C0E2F720FD1BC025B1FB01E95EFE4F81E093
S11301D090E0008002C0880F991F0A94E2F7822BF6
S11301E085B9660F771F660F771F460F571FFA01F1
S11301F0ED5FFE4F80818C9381E03AC09F5F943025
S113020098F225B1FB01E95EFE4F81E090E00080A9
S113021002C0880F991F0A94E2F7822B85B9CF5F39
S1130220C33008F4AECF8BB18F778BB980E01AC09E
S113023029B1482F50E0FA01ED5EFE4F30E0008016
S113024002C0359527950A94E2F720FD0AC08BB1C8
S113025080688BB9FA01E15FFE4F80818C9381E065
S113026007C08F5F843020F38BB180688BB980E046
S1130270CF9108950F931F93CF93DF931F92CDB720
S1130280DEB78C01CE0101960E94BD00811106C02B
S11302909FEF90931C019093000113C0898190916A
S11302A01C0189130BC090910001891739F0F801E2
S11302B0808389818093000181E003C080931C01C5
S11302C080E00F90DF91CF911F910F91089565B158
S11302D0982F9074492F50E055954795559547951B
S11302E05595479555954795982F9078292F30E047
S11302F0022E232F000C221F330B000C221F331F4E
S1130300962F997F492B242B25B968B1982F90718A
S1130310492F50E0559547955595479555954795DF
S1130320982F9072292F30E035952795359527958C
S113033035952795962F997F492B242B28B99BB166
S113034092609BB99BB191609BB925ED2A95F1F719
S113035000009BB19E7F9BB99BB19D7F9BB995ED9E
S11303609A95F1F7000065B120E1829FC001112444
S1130370AC01407455275595479555954795559526
S11303804795559547959C0120783327022E232FB6
S1130390000C221F330B000C221F331F362F397F12
S11303A0432B242B25B948B19C0120713327359563
S11303B02795359527953595279580729927959595
S11303C087959595879595958795942F997F292B52
S11303D0822B88B98BB182608BB98BB181608BB968
S11303E085ED8A95F1F700008BB18E7F8BB98BB1C7
S11303F08D7F8BB995ED9A95F1F70000089565B15D
S1130400982F9074492F50E05595479555954795E9
S11304105595479555954795982F9078292F30E015
S1130420022E232F000C221F330B000C221F331F1C
S1130430962F997F492B242B25B968B1982F907159
S1130440492F50E0559547955595479555954795AE
S1130450982F9072292F30E035952795359527955B
S113046035952795962F997F492B242B28B99BB135
S113047091609BB9EFE9FFE03197F1F700C000000C
S11304809BB19E7F9BB9EFE9FFE03197F1F700C084
S1130490000065B1F0E18F9FC0011124AC014074EC
S11304A05527559547955595479555954795559590
S11304B047959C0120783327022E232F000C221FFE
S11304C0330B000C221F331F362F397F432B242B71
S11304D025B948B19C012071332735952795359569
S11304E027953595279580729927959587959595A4
S11304F0879595958795942F997F292B822B88B979
S11305008BB181608BB98FE99FE00197F1F700C04F
S113051000008BB18E7F8BB9EFE9FFE03197F1F7E3
S113052000C00000089581E00E94FF01089582E068
S11305300E94FF010895623031F0633031F0613080
S113054029F4805C03C08C5E01C08C5A80680E94D0
S1130550FF010895EF92FF920F931F93CF93DF93C0
S11305607C01862F90E0880F991F880F991F880FB0
S1130570991F8064C0E0D0E00DC0F701EC0FFD1FAF
S1130580149101E0080F0E94FF01812F0E9467016E
S11305902196802FC830D10580F3DF91CF911F9130
S11305A00F91FF90EF900895CF93DF938FE59AEE2C
S11305B00197F1F700C0000085B1897F85B988B142
S11305C0897F88B91BB887B1866087B984B1866092
S11305D084B984B1866084B987B1866087B98AB1E9
S11305E083608AB985B1897F85B988B1866088B905
S11305F08BB181608BB98FE99FE00197F1F700C05F
S113060000008BB18E7F8BB98FE99FE00197F1F7E2
S113061000C0000085B1897F85B988B1866088B93A
S11306208BB181608BB98FE99FE00197F1F700C02E
S113063000008BB18E7F8BB98FE99FE00197F1F7B2
S113064000C0000085B1897F85B988B1897F846045
S113065088B98BB181608BB98FE99FE00197F1F77D
S113066000C000008BB18E7F8BB98FE99FE00197AA
S1130670F1F700C0000088E20E94FF018CE00E94B4
S1130680FF0160E0C0E00AC0D1E0D60F8C2F90E0FB
S11306908C579F4F0E94AA02C85F6D2FC034A0F3ED
S11306A0DF91CF910895EF92FF920F931F93CF9311
S11306B0DF9300D000D01F92CDB7DEB77B01FE01DF
S11306C0319625E0DF011D922A95E9F724E030E018
S11306D00FC06AE070E00E946108E1E0F0E0EC0F16
S11306E0FD1FE20FF31F8083862F972F21503109BE
S11306F0009779F7BFEFEB16FB0681F403C00F5F99
S11307001F4F02C000E010E0E1E0F0E0EC0FFD1F3D
S1130710E00FF11F2081222391F304C005E010E0D3
S11307200E191F09992384F48DE20E9467010CC0FD
S1130730E1E0F0E0EC0FFD1FE00FF11F8081805D30
S11307400E9467010F5F1F4F053011058CF30F9056
S11307500F900F900F900F90DF91CF911F910F91F9
S1130760FF90EF9008950E94A0070E94E7030E9463
S11307701D0880911E01882331F010921E018EE124
S113078091E00E94B50780910101882391F31092B2
S113079001010E94F505EDCF1F920F920FB60F9243
S11307A011248F9381E08093010180911D018F5F5B
S11307B080931D018A3029F410921D0181E08093F9
S11307C01E018F910F900FBE0F901F9018950E94DD
S11307D0D4020E9493020E9497020E948100109208
S11307E0200108950F931F93CF93DF93CDB7DEB706
S11307F029970FB6F894DEBF0FBECDBF0E949302B7
S113080060E080E00E949B02CE0101960E941408E1
S1130810E09120018E2F90E08730910508F0DAC135
S1130820FC01EC5CFF4F0C9475088F8162E070E072
S113083090E00E9453038AE30E946701888562E086
S113084070E090E00E9453038AE30E946701898567
S113085062E070E090E00E94530361E080E00E9457
S11308609B028E8162E070E090E00E9453038FE26D
S11308700E9467018D8162E070E090E00E94530362
S11308808FE20E94670162E070E089819A810E9490
S11308905303A0C18F8162E070E090E00E94530393
S11308A08AE30E946701888562E070E090E00E941C
S11308B053038AE30E946701898562E070E090E057
S11308C00E94530361E080E00E949B028E8162E0FB
S11308D070E090E00E9453038FE20E9467018D81D3
S11308E062E070E090E00E9453038FE20E9467018F
S11308F080911F01882339F080E20E94670180E221
S11309000E94670167C162E070E0809123019091C9
S113091024010E9453035EC18F8162E070E090E085
S11309200E9453038AE30E946701888562E070E0B5
S113093090E00E9453038AE30E946701898562E084
S113094070E090E00E94530361E080E00E949B020B
S11309508E8162E070E090E00E9453038FE20E9477
S1130960670180911F01882339F080E20E946701AA
S113097080E20E94670107C08091270162E070E075
S113098090E00E9453038FE20E94670162E070E0EE
S113099080912301909124010E9453031BC18F81F4
S11309A062E070E090E00E9453038AE30E946701D2
S11309B0888562E070E090E00E9453038AE30E941D
S11309C06701898562E070E090E00E94530361E072
S11309D080E00E949B0280911F01882339F080E20D
S11309E00E94670180E20E94670107C0809128018C
S11309F062E070E090E00E9453038FE20E9467017E
S1130A0003E211E0F801848162E070E090E00E946A
S1130A1053038FE20E94670162E070E0F801808175
S1130A2091810E945303D6C080911F01882339F01D
S1130A3080E20E94670180E20E94670107C0809102
S1130A40290162E070E090E00E9453038AE30E946F
S1130A506701888562E070E090E00E9453038AE3B6
S1130A600E946701898562E070E090E00E94530370
S1130A7061E080E00E949B0203E211E0F8018581BD
S1130A8062E070E090E00E9453038FE20E946701ED
S1130A90F801848162E070E090E00E9453038FE2E9
S1130AA00E94670162E070E0F801808191810E94F8
S1130AB0530390C08091290162E070E090E00E94AD
S1130AC053038AE30E94670180911F01882339F050
S1130AD080E20E94670180E20E94670107C0809162
S1130AE02A0162E070E090E00E9453038AE30E94CE
S1130AF06701898562E070E090E00E94530361E041
S1130B0080E00E949B0203E211E0F801858162E02B
S1130B1070E090E00E9453038FE20E946701F801A5
S1130B20848162E070E090E00E9453038FE20E94AF
S1130B30670162E070E0F801808191810E945303B3
S1130B4049C003E211E0F801868162E070E090E0C0
S1130B500E9453038AE30E946701F801878162E0DF
S1130B6070E090E00E9453038AE30E946701809141
S1130B701F01882339F080E20E94670180E20E940D
S1130B80670107C080912B0162E070E090E00E9451
S1130B90530361E080E00E949B0203E211E0F8014C
S1130BA0858162E070E090E00E9453038FE20E942E
S1130BB06701F801848162E070E090E00E945303D1
S1130BC08FE20E94670162E070E0F8018081918108
S1130BD00E94530329960FB6F894DEBF0FBECDBF13
S1130BE0DF91CF911F910F9108950F931F93CF938E
S1130BF0DF93CDB7DEB7E6970FB6F894DEBF0FBE2E
S1130C00CDBF80912001811104C08AE0809302014C
S1130C1010C080910201815080930201811109C0AA
S1130C2090911F0181E0892780931F018AE08093BE
S1130C30020181E291E00E943A01882309F473C120
S1130C40E09120018E2F90E08730910508F06BC170
S1130C50FC01E55CFF4F0C947508809121018134FF
S1130C6009F061C1CE018E960E9414088EA59FA53D
S1130C70A8A9B9A98093230190932401A0932501E5
S1130C80B093260181E0809320014DC18091210120
S1130C908234A1F018F4813431F045C18334E1F099
S1130CA0843441F140C1CE0185960E94140889A57F
S1130CB08093270182E08093200135C1E3E2F1E0D3
S1130CC080819181A281B3810196A11DB11D808390
S1130CD09183A283B38327C1E3E2F1E08081918110
S1130CE0A281B3810197A109B10980839183A28371
S1130CF0B38319C11092200116C18091210182345D
S1130D0021F118F4813431F00EC1833451F184346B
S1130D1099F109C1CE014C960E94140819A1E3E28D
S1130D20F1E01583608184810E945508811748F49D
S1130D3003E211E0F801608184810E945508F80102
S1130D40858383E080932001EEC0E3E2F1E08481B7
S1130D508F5F84838D3009F0E6C081E080932701A2
S1130D60E2C0E3E2F1E08481815084838111DBC03D
S1130D708CE080932701D7C010922001D4C08091C9
S1130D8021018234A1F018F4813431F0CCC08334D1
S1130D90F1F0843459F1C7C0CE0143960E9414087F
S1130DA0898D8093290184E080932001BCC0E3E213
S1130DB0F1E015811F5F1583608184810E945508CD
S1130DC0811708F0B0C081E080932801ACC0E3E251
S1130DD0F1E08581815085838111A5C08F016081F7
S1130DE084810E945508F80185839DC010922001DA
S1130DF09AC0809121018234A1F018F4813431F039
S1130E0092C08334C9F08434E9F08DC0CE010A96CF
S1130E100E941408898980932A0185E08093200127
S1130E2082C0E3E2F1E086818F5F8683883109F036
S1130E307AC01092290177C0E3E2F1E08681815003
S1130E40868371C0109220016EC08091210182348A
S1130E50A1F018F4813431F066C08334C9F08434CD
S1130E6019F161C0CE0101960E941408898580930E
S1130E702B0186E08093200156C0E3E2F1E08781F4
S1130E808F5F87838C3309F04EC010922A014BC0C8
S1130E90E3E2F1E087819FEF980F9783811143C0CC
S1130EA08BE380932A013FC0109220013CC08091C3
S1130EB02101823401F118F4813431F034C08334D7
S1130EC021F1843471F12FC0009123011091240188
S1130ED0209125013091260140912701509128014C
S1130EE06091290170912A0180912B010E94EB07E6
S1130EF01092200118C0E3E2F1E080858F5F8087C3
S1130F008C3389F410922B010EC0E3E2F1E080856A
S1130F109FEF980F9087811106C08BE380932B017C
S1130F2002C0109220010E94F203E6960FB6F894D4
S1130F30DEBF0FBECDBFDF91CF911F910F910895FA
S1130F40ECE2F1E08FE185838CE084838FEC97E021
S1130F50A0E0B0E080839183A283B38387E186839A
S1130F608BE3878387E380870895CF93ECE2F1E0F6
S1130F7080858F5F80878C3361F5108687818F5FD2
S1130F8087838C3331F5178286818F5F868388311E
S1130F9001F51682C581CF5FC583608184810E947B
S1130FA055088C17B0F4ECE2F1E081E0858384818C
S1130FB08F5F84838D3069F480819181A281B381B4
S1130FC00196A11DB11D80839183A283B38381E027
S1130FD08483CF9108950F931F93CF93DF93CDB75D
S1130FE0DEB729970FB6F894DEBF0FBECDBF0983D5
S1130FF01A832B833C834D835E836F837887898731
S113100089E0FE013196ACE2B1E001900D928A953F
S1131010E1F729960FB6F894DEBF0FBECDBFDF917E
S1131020CF911F910F91089529E0ECE2F1E0DC01EA
S113103001900D922A95E1F7089510928000E1E85D
S1131040F0E01082109285001092840080818D60FF
S113105080838AE196E09093890080938800EFE68C
S1131060F0E080818260808378940895982F937053
S1131070B1F499E2899F912D112492959F70382F94
S113108024E6929F3019112431110BC090E060E9DD
S113109071E00E946108892B31F08CE108958CE1A4
S11310A008958DE108958DE1089580FD06C0823094
S11310B031F4862F0E94360808958FE108958EE159
S11310C0089597FB072E16F4009407D077FD09D0F6
S11310D00E947B0807FC05D03EF4909581959F4FB4
S11310E00895709561957F4F0895EE0FFF1F059049
S11310F0F491E02D0994AA1BBB1B51E107C0AA1F60
S1131100BB1FA617B70710F0A61BB70B881F991FA4
S11311105A95A9F780959095BC01CD010895F8944E
S1051120FFCFFB
S1131122FF010A31323341343536423738394330DC
S10F11322A234403050402040300070000
S9030000FC
