S00B00005450322E7372656343
S11300000C9462000C947F000C947F000C947F008D
S11300100C947F000C947F000C947F000C947F0060
S11300200C947F000C947F000C947F000C94C2030A
S11300300C947F000C947F000C947F000C947F0040
S11300400C947F000C947F000C947F000C947F0030
S11300500C947F000C947F000C947F000C947F0020
S11300600C947F000C947F00C704FE0442058705AE
S1130070CC0511065506C706D9060F073F077A07B0
S1130080AA07DA07001F000000001F00001F10105D
S113009010101F00001F181818181F00001F1C1C28
S11300A01C1C1F00001F1E1E1E1E1F00001F1F1FE2
S11300B01F1F1F0003070F1F0F070300181C1E1F1D
S11300C01E1C180011241FBECFEFD8E0DEBFCDBF29
S11300D011E0A0E0B1E0EEEBF0E102C005900D927A
S11300E0A432B107D9F721E0A4E2B1E001C01D9226
S11300F0A433B207E1F70E94B3030C945D080C9497
S1130100000020E030E014C044B1F901E15EFE4F8C
S113011081E090E0008002C0880F991F0A94E2F702
S1130120942F982B94B995B1892B85B92F5F3F4FA4
S1130130233031054CF38AB180688AB98BB1806869
S11301408BB920E030E015C04AB1F901E55EFE4FFD
S113015081E090E0008002C0880F991F0A94E2F7C2
S1130160982F909594239AB99BB1892B8BB92F5FC3
S11301703F4F2430310544F30895CF93DC01C0E0B0
S11301804FC085B16C2F70E0FB01E15EFE4F21E0B2
S113019030E0008002C0220F331F0A94E2F720955A
S11301A0282325B990E02BC029B1492F50E0FA014A
S11301B0E55EFE4F30E0008002C0359527950A9435
S11301C0E2F720FD1BC025B1FB01E15EFE4F81E09B
S11301D090E0008002C0880F991F0A94E2F7822BF6
S11301E085B9660F771F660F771F460F571FFA01F1
S11301F0E55FFE4F80818C9381E03AC09F5F94302D
S113020098F225B1FB01E15EFE4F81E090E00080B1
S113021002C0880F991F0A94E2F7822B85B9CF5F39
S1130220C33008F4AECF8BB18F778BB980E01AC09E
S113023029B1482F50E0FA01E55EFE4F30E000801E
S113024002C0359527950A94E2F720FD0AC08BB1C8
S113025080688BB9FA01E95EFE4F80818C9381E05E
S113026007C08F5F843020F38BB180688BB980E046
S1130270CF9108950F931F93CF93DF931F92CDB720
S1130280DEB78C01CE0101960E94BD00811106C02B
S11302909FEF909324019093000113C08981909162
S11302A0240189130BC090910001891739F0F801DA
S11302B0808389818093000181E003C080932401BD
S11302C080E00F90DF91CF911F910F91089565B158
S11302D0982F9074492F50E055954795559547951B
S11302E05595479555954795982F9078292F30E047
S11302F0022E232F000C221F330B000C221F331F4E
S1130300962F997F492B242B25B968B1982F90718A
S1130310492F50E0559547955595479555954795DF
S1130320982F9072292F30E035952795359527958C
S113033035952795962F997F492B242B28B99BB166
S113034092609BB99BB191609BB925ED2A95F1F719
S113035000009BB19E7F9BB99BB19D7F9BB995ED9E
S11303609A95F1F7000065B120E1829FC001112444
S1130370AC01407455275595479555954795559526
S11303804795559547959C0120783327022E232FB6
S1130390000C221F330B000C221F331F362F397F12
S11303A0432B242B25B948B19C0120713327359563
S11303B02795359527953595279580729927959595
S11303C087959595879595958795942F997F292B52
S11303D0822B88B98BB182608BB98BB181608BB968
S11303E085ED8A95F1F700008BB18E7F8BB98BB1C7
S11303F08D7F8BB995ED9A95F1F70000089565B15D
S1130400982F9074492F50E05595479555954795E9
S11304105595479555954795982F9078292F30E015
S1130420022E232F000C221F330B000C221F331F1C
S1130430962F997F492B242B25B968B1982F907159
S1130440492F50E0559547955595479555954795AE
S1130450982F9072292F30E035952795359527955B
S113046035952795962F997F492B242B28B99BB135
S113047091609BB9EFE9FFE03197F1F700C000000C
S11304809BB19E7F9BB9EFE9FFE03197F1F700C084
S1130490000065B1F0E18F9FC0011124AC014074EC
S11304A05527559547955595479555954795559590
S11304B047959C0120783327022E232F000C221FFE
S11304C0330B000C221F331F362F397F432B242B71
S11304D025B948B19C012071332735952795359569
S11304E027953595279580729927959587959595A4
S11304F0879595958795942F997F292B822B88B979
S11305008BB181608BB98FE99FE00197F1F700C04F
S113051000008BB18E7F8BB9EFE9FFE03197F1F7E3
S113052000C00000089581E00E94FF01089582E068
S11305300E94FF010895623031F0633031F0613080
S113054029F4805C03C08C5E01C08C5A80680E94D0
S1130550FF010895EF92FF920F931F93CF93DF93C0
S11305607C01862F90E0880F991F880F991F880FB0
S1130570991F8064C0E0D0E00DC0F701EC0FFD1FAF
S1130580149101E0080F0E94FF01812F0E9467016E
S11305902196802FC830D10580F3DF91CF911F9130
S11305A00F91FF90EF900895CF93DF938FE59AEE2C
S11305B00197F1F700C0000085B1897F85B988B142
S11305C0897F88B91BB887B1866087B984B1866092
S11305D084B984B1866084B987B1866087B98AB1E9
S11305E083608AB985B1897F85B988B1866088B905
S11305F08BB181608BB98FE99FE00197F1F700C05F
S113060000008BB18E7F8BB98FE99FE00197F1F7E2
S113061000C0000085B1897F85B988B1866088B93A
S11306208BB181608BB98FE99FE00197F1F700C02E
S113063000008BB18E7F8BB98FE99FE00197F1F7B2
S113064000C0000085B1897F85B988B1897F846045
S113065088B98BB181608BB98FE99FE00197F1F77D
S113066000C000008BB18E7F8BB98FE99FE00197AA
S1130670F1F700C0000088E20E94FF018CE00E94B4
S1130680FF0160E0C0E00AC0D1E0D60F8C2F90E0FB
S11306908C579F4F0E94AA02C85F6D2FC034A0F3ED
S11306A0DF91CF910895EF92FF920F931F93CF9311
S11306B0DF9300D000D01F92CDB7DEB77B01FE01DF
S11306C0319625E0DF011D922A95E9F724E030E018
S11306D00FC06AE070E00E942F08E1E0F0E0EC0F48
S11306E0FD1FE20FF31F8083862F972F21503109BE
S11306F0009779F7BFEFEB16FB0681F403C00F5F99
S11307001F4F02C000E010E0E1E0F0E0EC0FFD1F3D
S1130710E00FF11F2081222391F304C005E010E0D3
S11307200E191F09992384F48DE20E9467010CC0FD
S1130730E1E0F0E0EC0FFD1FE00FF11F8081805D30
S11307400E9467010F5F1F4F053011058CF30F9056
S11307500F900F900F900F90DF91CF911F910F91F9
S1130760FF90EF9008950E94DD030E941608809187
S113077001018823E1F31092010186E291E00E94D5
S11307809A06F5CF1F920F920FB60F9211248F93F2
S113079081E080930101809125018F5F8093250181
S11307A08A3029F41092250181E0809326018F91EB
S11307B00F900FBE0F901F9018950E94D4020E94B4
S11307C093020E9497020E948100109228010895CA
S11307D0982F9370B1F499E2899F912D11249295E9
S11307E09F70382F24E6929F3019112431110BC0C9
S11307F090E060E971E00E942F08892B31F08CE1D0
S113080008958CE108958DE108958DE1089580FDAA
S113081006C0823031F4862F0E94E80308958FE1E8
S113082008958EE10895CF92DF92EF92FF92CF93D5
S1130830DF93E2E0F1E080858F5F80878C3371F590
S1130840108687818F5F87838C3341F51782868179
S11308508F5F8683883111F51682C581CF5FC5838A
S1130860C080D180E280F380D4816C2D8D2F0E94D2
S113087007048C1798F4E2E0F1E081E08583DF5F00
S1130880D483DD3059F48FEFC81AD80AE80AF80A7D
S1130890C082D182E282F38281E084838091280144
S11308A08330C9F128F4813051F0823001F153C012
S11308B0843009F440C0853009F449C04CC0A2E03A
S11308C0B1E014968C911497EBE2F1E084831596D1
S11308D08C911597858316968C9116978683179617
S11308E08C911797878318968C91808734C0A2E0E7
S11308F0B1E015968C911597EBE2F1E0858316969D
S11309008C911697868317968C91179787831896E0
S11309108C91808720C0A2E0B1E016968C91169746
S1130920EBE2F1E0868317968C91179787831896EC
S11309308C91808710C0A2E0B1E017968C91179734
S1130940EBE2F1E0878318968C91808704C0809154
S11309500A0180933301DF91CF91FF90EF90DF90F4
S1130960CF900895CF93DF930E94930260E080E0DC
S11309700E949B02E09128018E2F90E08730910520
S113098008F0D5C1FC01EC5CFF4F0C944308C2E0B5
S1130990D1E062E070E0888199810E9453038FE284
S11309A00E9467018C8162E070E090E00E94530332
S11309B08FE20E9467018D8162E070E090E00E9406
S11309C0530361E080E00E949B028E8162E070E04C
S11309D090E00E9453038AE30E9467018F8162E0E2
S11309E070E090E00E9453038AE30E9467018885C7
S11309F062E070E090E00E94530399C18091270166
S1130A00882339F080E20E94670180E20E94670136
S1130A1008C062E070E080912B0190912C010E944B
S1130A2053038FE20E946701C2E0D1E08C8162E04F
S1130A3070E090E00E9453038FE20E9467018D8171
S1130A4062E070E090E00E94530361E080E00E9465
S1130A509B028E8162E070E090E00E9453038AE37F
S1130A600E9467018F8162E070E090E00E9453036E
S1130A708AE30E946701888562E070E090E00E944A
S1130A80530355C162E070E080912B0190912C01D9
S1130A900E9453038FE20E946701809127018823FB
S1130AA039F080E20E94670180E20E94670107C07A
S1130AB080912F0162E070E090E00E9453038FE286
S1130AC00E946701C2E0D1E08D8162E070E090E0B5
S1130AD00E94530361E080E00E949B028E8162E0E9
S1130AE070E090E00E9453038AE30E9467018F81C3
S1130AF062E070E090E00E9453038AE30E94670181
S1130B00888562E070E090E00E94530310C1CBE25C
S1130B10D1E062E070E0888199810E9453038FE202
S1130B200E9467018C8162E070E090E00E945303B0
S1130B308FE20E94670180912701882339F080E2C7
S1130B400E94670180E20E94670107C08091300122
S1130B5062E070E090E00E94530361E080E00E9454
S1130B609B02C2E0D1E08E8162E070E090E00E94DE
S1130B7053038AE30E9467018F8162E070E090E092
S1130B800E9453038AE30E946701888562E070E053
S1130B9090E00E945303CBC0CBE2D1E062E070E06E
S1130BA0888199810E9453038FE20E9467018C819E
S1130BB062E070E090E00E9453038FE20E946701BC
S1130BC08D8162E070E090E00E94530361E080E078
S1130BD00E949B0280912701882339F080E20E94C1
S1130BE0670180E20E94670107C08091310162E0E1
S1130BF070E090E00E9453038AE30E946701C2E020
S1130C00D1E08F8162E070E090E00E9453038AE3B8
S1130C100E946701888562E070E090E00E945303BF
S1130C2086C0CBE2D1E062E070E0888199810E94C5
S1130C3053038FE20E9467018C8162E070E090E0D0
S1130C400E9453038FE20E9467018D8162E070E08D
S1130C5090E00E94530361E080E00E949B028E8139
S1130C6062E070E090E00E9453038AE30E9467010F
S1130C7080912701882339F080E20E94670180E295
S1130C800E94670107C08091320162E070E090E049
S1130C900E9453038AE30E94670180910A0162E083
S1130CA070E090E00E94530342C0CBE2D1E062E0E6
S1130CB070E0888199810E9453038FE20E9467014A
S1130CC08C8162E070E090E00E9453038FE20E9406
S1130CD067018D8162E070E090E00E94530361E05F
S1130CE080E00E949B028E8162E070E090E00E94AE
S1130CF053038AE30E9467018F8162E070E090E011
S1130D000E9453038AE30E9467018091270188238C
S1130D1039F080E20E94670180E20E94670107C007
S1130D208091330162E070E090E00E945303DF9110
S1130D30CF910895CF93DF93FC012081222399F072
S1130D40108280912801882331F02091270191E0BD
S1130D5092279093270190E00E9413048091280128
S1130D6090E00E94B20489E291E00E943A01882353
S1130D7009F459C1E09128018E2F90E08730910544
S1130D8008F051C1FC01E55CFF4F0C9443088091CD
S1130D902901813409F047C189E0E2E0F1E0ABE2E6
S1130DA0B1E001900D928A95E1F781E080932801EA
S1130DB03AC180912901823469F018F4813431F008
S1130DC032C18334B9F0843429F12DC182E0809397
S1130DD0280129C1EBE2F1E080819181A281B381F4
S1130DE00196A11DB11D80839183A283B3830E94C8
S1130DF0B20419C1EBE2F1E080819181A281B38157
S1130E000197A109B10980839183A283B3830E94CE
S1130E10B20409C1109228010E94B20404C1809155
S1130E202901823469F018F4813431F0FCC0833430
S1130E30A1F08434F9F0F7C083E080932801F3C073
S1130E40EBE2F1E084818F5F84838D3019F481E0DB
S1130E5080932F010E94B204E6C0EBE2F1E08481AA
S1130E6081508483811103C08CE080932F010E9400
S1130E70B204D9C0109228010E94B204D4C0809157
S1130E802901823469F018F4813431F0CCC0833400
S1130E90E1F0843451F1C7C084E080932801C3C0D9
S1130EA0EBE2F1E0C581CF5FC583D0E0608184814E
S1130EB00E94070490E00196C817D90719F481E04D
S1130EC0809330010E94B204AEC0EBE2F1E0858170
S1130ED081508583811106C0EF01608184810E9465
S1130EE007048D830E94B2049EC0109228010E94C0
S1130EF0B20499C080912901823469F018F48134D4
S1130F0031F091C0833499F08434F9F08CC085E0D9
S1130F108093280188C0EBE2F1E086818F5F8683AD
S1130F20883111F4109231010E94B2047CC0EBE2CA
S1130F30F1E086819FEF980F9683811103C087E1CA
S1130F40809331010E94B2046EC0109228010E9465
S1130F50B20469C080912901823469F018F48134A3
S1130F6031F061C0833499F08434F9F05CC086E0D8
S1130F708093280158C0EBE2F1E087818F5F87837B
S1130F808C3311F4109232010E94B2044CC0EBE293
S1130F90F1E087819FEF980F9783811103C08BE362
S1130FA0809332010E94B2043EC0109228010E9434
S1130FB0B20439C0809129018234B9F018F4813423
S1130FC031F031C08334E9F0843449F12CC089E034
S1130FD0EBE2F1E0A2E0B1E001900D928A95E1F735
S1130FE0109228010E94B2041EC0EBE2F1E0808559
S1130FF08F5F80878C3311F4109233010E94B20406
S113100012C0EBE2F1E080859FEF980F9087811189
S113101003C08BE3809333010E94B20404C0109296
S113102028010E94B204DF91CF91089510928000AC
S1131030E1E8F0E010821092850010928400808133
S11310408D6080838AE196E0909389008093880084
S1131050EFE6F0E08081826080837894089597FBC6
S1131060072E16F4009407D077FD09D00E94490892
S113107007FC05D03EF4909581959F4F0895709597
S113108061957F4F0895EE0FFF1F0590F491E02DB9
S11310900994AA1BBB1B51E107C0AA1FBB1FA617BB
S11310A0B70710F0A61BB70B881F991F5A95A9F70D
S11110B080959095BC01CD010895F894FFCF72
S11310BEFF01CF0700000C1F173B37313233413489
S11310CE35364237383943302A23440305040204A3
S10710DE0300070000
S9030000FC
